:100000000C9436030C945E030C945E030C945E0314
:100010000C945E030C945E030C945E030C945E03DC
:100020000C945E030C945E030C945E030C945E03CC
:100030000C945E030C945E030C945E030C945E03BC
:100040000C941C060C945E030C944F050C9429052B
:100050000C945E030C945E030C945E030C945E039C
:100060000C945E030C945E03000000002400270043
:100070002A00E70000666600180000E700666600D8
:10008000001844AA38283810382880443A2A3810F2
:100090002828006CBA28381038280018997E1818BB
:1000A000241818997E181818241818187F981818EA
:1000B00024441818FC1B1818244818987C1A19187E
:1000C00024240001020304050608090A0B0D0E1082
:1000D00012131517191B1D202225272A2D303337FF
:1000E0003A3E4145494D52565B5F64696E74797F73
:1000F000858B91979DA4ABB2B9C0C7CFD6DEE6EE93
:10010000F7FF000102030507090B0E1114181D2249
:10011000282E363D464F59646F7C8997A6B6C7D9BD
:10012000EBFF00000000003E5B4F5B3E3E6B4F6B01
:100130003E1C3E7C3E1C183C7E3C181C577D571CC8
:100140001C5E7F5E1C00183C1800FFE7C3E7FF0041
:1001500018241800FFE7DBE7FF30483A060E26298F
:10016000792926407F050507407F05253F5A3CE752
:100170003C5A7F3E1C1C08081C1C3E7F14227F2218
:10018000145F5F005F5F06097F017F006689956AE3
:10019000606060606094A2FFA29408047E0408106E
:1001A000207E201008082A1C08081C2A08081E1097
:1001B0001010100C1E0C1E0C30383E3830060E3E4F
:1001C0000E06000000000000005F000000070007AE
:1001D00000147F147F14242A7F2A122313086462D8
:1001E00036495620500008070300001C2241000039
:1001F00041221C002A1C7F1C2A08083E0808008097
:10020000703000080808080800006060002010082E
:1002100004023E5149453E00427F4000724949492F
:10022000462141494D331814127F10274545453961
:100230003C4A494931412111090736494949364665
:100240004949291E00001400000040340000000845
:1002500014224114141414140041221408020159E8
:1002600009063E415D594E7C1211127C7F49494975
:10027000363E414141227F4141413E7F494949410A
:100280007F090909013E414151737F0808087F0039
:10029000417F41002040413F017F081422417F40BF
:1002A0004040407F021C027F7F0408107F3E414196
:1002B000413E7F090909063E4151215E7F09192906
:1002C00046264949493203017F01033F4040403FF0
:1002D0001F2040201F3F4038403F63140814630331
:1002E000047804036159494D43007F4141410204B0
:1002F000081020004141417F0402010204404040B7
:100300004040000307080020545478407F284444AC
:10031000383844444428384444287F3854545418C6
:1003200000087E090218A4A49C787F0804047800C1
:10033000447D40002040403D007F102844000041A3
:100340007F40007C047804787C08040478384444B6
:100350004438FC1824241818242418FC7C080404AD
:1003600008485454542404043F44243C4040207C16
:100370001C2040201C3C4030403C44281028444C69
:100380009090907C4464544C440008364100000036
:10039000770000004136080002010204023C2623D7
:1003A000263C1EA1A161123A4040207A385454558F
:1003B0005921555579412254547842215554784059
:1003C00020545579400C1E527212395555555939E1
:1003D0005454545939555454580000457C41000236
:1003E000457D420001457C407D1211127DF028259B
:1003F00028F07C545545002054547C547C0A097FD5
:100400004932494949323A4444443A324A484830E8
:100410003A4141217A3A42402078009DA0A07D3D9A
:100420004242423D3D4040403D3C24FF2424487E22
:100430004943662B2FFC2F2BFF0929F620C0887E0D
:10044000090320545479410000447D413048484A12
:1004500032384040227A007A0A0A727D0D19317DC5
:100460002629292F28262929292630484D40203899
:100470000808080808080808382F10C8ACBA2F1058
:100480002834FA00007B000008142A142222142ABF
:1004900014085500550055AA55AA55AAFF55FF55F1
:1004A000FF000000FF00101010FF00141414FF00E4
:1004B0001010FF00FF1010F010F0141414FC0014C2
:1004C00014F700FF0000FF00FF1414F404FC1414E0
:1004D00017101F10101F101F1414141F00101010DD
:1004E000F0000000001F101010101F10101010F06E
:1004F00010000000FF101010101010101010FF104E
:10050000000000FF140000FF00FF00001F10170094
:1005100000FC04F414141710171414F404F400006D
:10052000FF00F714141414141414F700F71414141F
:10053000171410101F101F141414F4141010F010BE
:10054000F000001F101F0000001F14000000FC142A
:100550000000F010F01010FF10FF141414FF14101E
:1005600010101F00000000F010FFFFFFFFFFF0F071
:10057000F0F0F0FFFFFF0000000000FFFF0F0F0F83
:100580000F0F3844443844FC4A4A4A347E0202067B
:1005900006027E027E0263554941633844443C04AE
:1005A000407E201E2006027E020299A5E7A5991C26
:1005B0002A492A1C4C7201724C304A4D4D30304849
:1005C000784830BC625A463D3E494949007E0101A7
:1005D000017E2A2A2A2A2A44445F444440514A443C
:1005E0004040444A51400000FF0103E080FF00000A
:1005F00008086B6B083612362436060F090F060002
:100600000018180000001010003040FF0101001F0A
:1006100001011E00191D1712003C3C3C3C0000006B
:1006200000000000000800020100000304070000B1
:1006300000000000000001020408102040800102B8
:10064000040810200102040810200000000025000A
:1006500028002B000404040404040404020202021F
:10066000020203030303030353142D1411241FBEBA
:10067000CFEFD8E0DEBFCDBF22E0A6E8B1E001C0F9
:100680001D92AB38B207E1F711E0A0E0B1E0E0EB7A
:10069000F0E302C005900D92A638B107D9F713E038
:1006A000C5E3D3E004C02197FE010E940716C433BE
:1006B000D107C9F70E94C8100C944B180C94000085
:1006C000FC01538D448D252F30E0842F90E0821B58
:1006D000930B541710F0CF96089501970895FC01DD
:1006E000918D828D981761F0828DDF01A80FB11D69
:1006F0005D968C91928D9F5F9F73928F90E008958D
:100700008FEF9FEF0895FC01918D828D981731F046
:10071000828DE80FF11D858D90E008958FEF9FEF9A
:100720000895FC01918D228D892F90E0805C9F4F70
:10073000821B91098F739927089583E991E00E94A4
:10074000910321E0892B09F420E0822F0895FC0118
:10075000848DDF01A80FB11DA35ABF4F2C91848D4A
:1007600090E001968F739927848FA689B7892C937F
:10077000A089B1898C9180648C93938D848D98131A
:1007800006C00288F389E02D80818F7D80830895E3
:10079000EF92FF920F931F93CF93DF93EC0181E0D1
:1007A000888F9B8D8C8D981305C0E889F98980818D
:1007B00085FD24C0F62E0B8D10E00F5F1F4F0F73C9
:1007C0001127E02E8C8DE8120CC00FB607FCFACF73
:1007D000E889F989808185FFF5CFCE010E94A703C2
:1007E000F1CF8B8DFE01E80FF11DE35AFF4FF08230
:1007F0000B8FEA89FB898081806207C0EE89FF89BF
:100800006083E889F98980818064808381E090E059
:10081000DF91CF911F910F91FF90EF900895CF93AB
:10082000DF93EC01888D8823C9F0EA89FB898081F8
:1008300085FD05C0A889B9898C9186FD0FC00FB6CA
:1008400007FCF5CF808185FFF2CFA889B9898C910B
:1008500085FFEDCFCE010E94A703E7CFDF91CF91B7
:10086000089580E090E0892B29F00E949D0381117A
:100870000C94000008950895FC016370658B8481D9
:10088000958126813781613039F0633029F0918775
:1008900080873387228708953187208793878287CF
:1008A00008950E940418AF92BF92CF92EF92FF92E8
:1008B0000F931F93CF93DF93EC01262F888D998D93
:1008C000009709F040C06A3059F41D861C862C89B7
:1008D0008E859F8538E0239F800D911D112441C096
:1008E0006D3009F4AAC08E898823C1F03C898C85BB
:1008F0009D8546E0349F800D911D112448855985C2
:10090000481759075CF41D861C868E859F8548E034
:10091000349F800D911D11249F878E87EA88FB8864
:10092000088919894E855F856C857D85CC88CE01C7
:100930000E94340B2C898C859D8536E0239F800D89
:10094000911D112442C06A3079F41D861C862C89C1
:10095000FC013696E4918E859F852E9F800D911D1A
:1009600011249F878E8769C06D3009F466C0FC0131
:1009700034963491631708F460C03196E491E61719
:1009800008F45BC0FC013296A590B490462F50E06D
:10099000431B510937E0349FB001359F700D11247E
:1009A000A60EB71EF501329634913196E4913323A9
:1009B00011F0E1110DC0F5013496E4912C898C857C
:1009C0009D85E29F800D911D11249D878C8735C0E8
:1009D000F501359644915E89552311F16C89E32F19
:1009E000F0E0E40FF11D47FDFA956E9FD0016F9F77
:1009F000B00D11244C855D854A0F5B1FE885F98594
:100A0000E417F5076CF41D861C86FC013696E4910C
:100A10008E859F856E9F800D911D11249F878E87E7
:100A2000EA88FB88088919894E855F856C857D85F4
:100A3000CC88CE010E94340BBECF81E090E0DF91E4
:100A4000CF911F910F91FF90EF90CF90BF90AF90FB
:100A500008951F920F920FB60F9211242F933F9378
:100A60004F935F936F937F938F939F93AF93BF93B6
:100A7000EF93FF9383E991E00E94A703FF91EF9129
:100A8000BF91AF919F918F917F916F915F914F91A6
:100A90003F912F910F900FBE0F901F9018951F92AE
:100AA0000F920FB60F9211242F938F939F93EF9372
:100AB000FF93E091A301F091A4018081E091A9014D
:100AC000F091AA0182FD12C090818091AC018F5FEC
:100AD0008F732091AD01821751F0E091AC01F0E0ED
:100AE000ED56FE4F958F8093AC0101C08081FF9140
:100AF000EF919F918F912F910F900FBE0F901F90AC
:100B00001895CF93DF9390E0FC01EA5CF94F2491B4
:100B1000FC01EC5AF94F8491882361F190E0880F31
:100B2000991FFC01E859FF4FC591D491FC01E65B88
:100B3000F94FA591B491611109C09FB7F8948881CC
:100B4000209582238883EC912E230BC0623061F4C0
:100B50009FB7F8943881822F809583238883EC9106
:100B60002E2B2C939FBF06C08FB7F894E8812E2BB5
:100B700028838FBFDF91CF9108953FB7F89480917C
:100B8000870190918801A0918901B0918A0126B5D1
:100B9000A89B05C02F3F19F00196A11DB11D3FBFB5
:100BA000BA2FA92F982F8827820F911DA11DB11D43
:100BB000BC01CD0142E0660F771F881F991F4A953F
:100BC000D1F708958F929F92AF92BF92CF92DF920A
:100BD000EF92FF926B017C010E94BD054B015C010D
:100BE000C114D104E104F104F1F00E94BD05DC015F
:100BF000CB0188199909AA09BB09883E9340A10530
:100C0000B10570F321E0C21AD108E108F10888EEBD
:100C1000880E83E0981EA11CB11CC114D104E1040C
:100C2000F10419F7DDCFFF90EF90DF90CF90BF90E8
:100C3000AF909F908F9008951F920F920FB60F92D2
:100C400011242F933F938F939F93AF93BF938091E2
:100C50008F0190919001A0919101B09192013091FA
:100C6000860123E0230F2D3720F40196A11DB11D2D
:100C700005C026E8230F0296A11DB11D2093860111
:100C800080938F0190939001A0939101B093920172
:100C90008091870190918801A0918901B0918A018A
:100CA0000196A11DB11D8093870190938801A093A7
:100CB0008901B0938A01BF91AF919F918F913F912C
:100CC0002F910F900FBE0F901F9018956F927F92EB
:100CD0008F929F92AF92BF92CF92DF92EF92FF924C
:100CE0000F931F93CF93DF93EC014B015A016901DE
:100CF0003801E881F9810284F385E02D0995E881C6
:100D0000F9810288F389E02D87019601A501B401DC
:100D1000CE010995E881F981A501460D571D415085
:100D200051090288F389E02D9601B401CE0109959D
:100D3000E881F9810088F189E02D9301A501B401D2
:100D4000CE010995E881F981C80CD91CB601615022
:100D500071090088F189E02D9301A501CE01099563
:100D6000E881F9810688F789E02DCE01DF91CF91E6
:100D70001F910F91FF90EF90DF90CF90BF90AF90B9
:100D80009F908F907F906F900994CF92DF92EF9217
:100D9000FF920F931F93CF93DF9300D000D000D02A
:100DA000CDB7DEB76C01DC01ED91FC9162177307E2
:100DB00089F4041715072CF4942F852FA801092F07
:100DC000182F041B150B98012F5F3F4F048CF58DD6
:100DD000E02D12C04017510709F5261737072CF4EC
:100DE000962F872FB901292F382F261B370B2F5FFE
:100DF0003F4F068CF78DE02D8701C6010995269699
:100E00000FB6F894DEBF0FBECDBFDF91CF911F911B
:100E10000F91FF90EF90DF90CF9008950284F385BB
:100E2000E02D2D833E834B835C8369837A83099510
:100E3000D601ED91FC910488F589E02D2D813E814C
:100E40004B815C8169817A81C6010995D601ED915A
:100E5000FC910688F789E02DC60126960FB6F89416
:100E6000DEBF0FBECDBFDF91CF911F910F91FF90DD
:100E7000EF90DF90CF900994EF92FF920F931F9322
:100E8000DC01ED91FC9111971A960D911C911B9725
:100E900018962D913C91199700A0F1A1E02D7B01AE
:100EA00040E050E060E070E009951F910F91FF90E5
:100EB000EF9008954F925F926F927F928F929F92E0
:100EC000AF92BF92CF92DF92EF92FF920F931F9358
:100ED000CF93DF9300D0CDB7DEB76C015A01390153
:100EE0004801DC01ED91FC910284F385E02D6983DA
:100EF0007A8309956981462E7A81572E640C751C78
:100F0000D601ED91FC91461457046CF40088F189E8
:100F1000E02D87019401A501B201C6010995BFEF3B
:100F20004B1A5B0AEDCF0688F789E02DC6010F90BA
:100F30000F90DF91CF911F910F91FF90EF90DF9075
:100F4000CF90BF90AF909F908F907F906F905F9069
:100F50004F900994AF92BF92CF92DF92EF92FF929F
:100F60000F931F93CF93DF9300D000D0CDB7DEB7A0
:100F70005C016901DC01ED91FC910284F385E02DB7
:100F80004B835C8369837A830995D501ED91FC914C
:100F900069817A819B012C0D3D1D21503109048806
:100FA000F589E02D78014B815C818A01C5010995A5
:100FB000D501ED91FC910688F789E02DC5010F90D0
:100FC0000F900F900F90DF91CF911F910F91FF9095
:100FD000EF90DF90CF90BF90AF900994AF92BF9207
:100FE000CF92DF92EF92FF920F931F93CF93DF93F5
:100FF00000D000D0CDB7DEB75C016901DC01ED9116
:10100000FC910284F385E02D4B835C8369837A83B2
:101010000995D501ED91FC914B815C81C40ED51EE3
:10102000B1E0CB1AD1080488F589E02D780186015A
:1010300069817A819B01C5010995D501ED91FC91EA
:101040000688F789E02DC5010F900F900F900F9043
:10105000DF91CF911F910F91FF90EF90DF90CF9094
:10106000BF90AF9009940895EF92FF920F931F9352
:10107000DC01ED91FC9100A0F1A1E02D09951F91FB
:101080000F91FF90EF9008950F931F93DC01ED9166
:10109000FC91068CF78DE02D09951F910F91089515
:1010A0000F931F93DC01ED91FC91048CF58DE02DE5
:1010B00009951F910F910895DC01ED91FC91008439
:1010C000F185E02D099408952F923F924F925F92FF
:1010D0006F927F928F929F92AF92BF92CF92DF9248
:1010E000EF92FF920F931F93CF93DF9300D01F9245
:1010F000CDB7DEB74C017B836A836A0159011701C2
:101100009801241B350B37FF03C031952195310918
:10111000C5014A815B81841B950B97FF03C09195A4
:101120008195910951E059838217930714F0198230
:101130000BC09A2D8B2D5801092F182F9A818B8166
:10114000DB82CA82C92ED82E8A819B81A816B90655
:101150005CF49C2D8D2D6801092F182F9A818B81AD
:10116000BB82AA82A92EB82E2501AA81BB814A1A68
:101170005B0A38016C187D0877FE03C07194619496
:101180007108720157FE03C0BFEFEB1AFB0AF5941A
:10119000E794C016D1061CF00FEF1FEF1FC001E04F
:1011A00010E01CC0D401ED91FC91B9810484F58557
:1011B000E02D9101BB23C1F04A815B81B601C401DE
:1011C0000995E618F708F7FE04C0C00ED11EE40C1E
:1011D000F51CEA81FB813196FB83EA834A815B81BE
:1011E000A416B506FCF604C0A6016A817B81E7CF90
:1011F0000F900F900F90DF91CF911F910F91FF9063
:10120000EF90DF90CF90BF90AF909F908F907F90A6
:101210006F905F904F903F902F9008958F929F9284
:10122000AF92BF92CF92DF92EF92FF920F931F93F4
:10123000CF93DF93FC014A01AA24BB24B82DC32E0F
:10124000D42EE52EFF24AC2D922F8781882361F0C8
:10125000889E40011124B92DC89E60011124AD2D36
:10126000289FE00111249D2FD584C285E084F1845C
:10127000DC1208C09B01220F331F620F731F6E0D1B
:101280007F1D16C0660F771F660F771F6E0D7F1DBF
:10129000052F112722273327EB01CD0DD11D8823E0
:1012A00029F0089F90011124232F01C0202F2883AB
:1012B0008285EB01C80FD11DB8838385EB01C80F70
:1012C000D11DA8838485FB01E80FF11D9083DF9178
:1012D000CF911F910F91FF90EF90DF90CF90BF9033
:1012E000AF909F908F900895FC01EF2FFF27E69518
:1012F000E695E695EE5FFE4F2491FC0135E0F6950C
:10130000E7953A95E1F7EF73FF27EE53FF4F6491AE
:101310008F719927FC01EE5FFE4FE491862F90E0DC
:10132000A0E0B0E0BA2FA92F982F8827A22BBC01EC
:10133000CD016E2B08958F929F92AF92BF92CF9264
:10134000DF92EF92FF920F931F93CF93DF938C0165
:10135000CB01F80122AD222329F086A897A8A0ACE2
:10136000B1AC04C00E9474094B015C016801FAE150
:10137000CF0ED11CF801E48CF58CC0E0D0E0CE1586
:10138000DF0571F0F801848D958DC817D90730F409
:10139000A5019401BE01C6010E940E092196EFCF5E
:1013A000DF91CF911F910F91FF90EF90DF90CF9041
:1013B000BF90AF909F908F9008954F925F926F92E1
:1013C0007F928F929F92AF92BF92CF92DF92EF92D5
:1013D000FF920F931F93CF93DF938C01EB017A0160
:1013E000590177FD2CC157FD2AC1DC0118968D915A
:1013F0009C911997681779070CF021C11A968D9165
:101400009C911B97481759070CF019C155968C9160
:101410005597823071F08330E1F0813011F51496E8
:101420008D919C9115970197841B950B7B01EC0185
:1014300018C0F8018481958101979C01261B370B08
:10144000E901868197810197DC01A41BB50B7D0121
:1014500008C0F801868197810197861B970BEA01E6
:101460007C01D801D496ED91FC91D597309739F055
:10147000B701CE010995EC01C12CD12CB2C0F80105
:1014800047A5F42FF3707F2ED801D2966C90D29797
:10149000662009F464C0D0964C90842C912CCE0127
:1014A000B4010E94F3156B01F80151A8252D30E01D
:1014B000C701B9010E94F315FB01C89CC001C99C7A
:1014C000900DD89C900D1124C81BD90B629FC001B0
:1014D000639F900D729F900D1124E81AF90A45FF41
:1014E00007C0862D90E001979C012C193D096901E8
:1014F00044FF07C0D801D396EC91F0E03197E61B8A
:10150000F70B46FD08C0262D30E09E2F8F2FF601E9
:10151000C92ED82E05C0D801D3966C90262D30E068
:1015200047FF09C0C0FE07C083E07826E095F0952C
:10153000BFEFCB1ADB0A2C9DC0012D9D900D3C9D69
:10154000900D1124E80FF91F549C200111244E9E88
:1015500060014F9ED00C5E9ED00C112402C0C12CA5
:10156000D12C9E01C70171FE09C0F80160A970E08D
:1015700061507109DB01AC1BBD0B9D0170FE06C003
:10158000F80181A990E001978E199F09D80142FDC9
:1015900009C0D096EC91F0E0682F592FC901262F91
:1015A000352F03C0D196EC91F0E043FF11C020FF2E
:1015B0000FC080959095E9012196CE9F9001CF9F15
:1015C000300DDE9F300D1124EC01C20FD31F09C076
:1015D000E29FE001E39FD00DF29FD00D1124C80FD0
:1015E000D91FF80182AD882329F026A937A940AD7B
:1015F00051AD05C0C5010E9474099B01AC01C60133
:101600008C0F9D1FD8015C966D917C915D9786171C
:101610009707A8F4BC01C8014A96DF91CF911F91AA
:101620000F91FF90EF90DF90CF90BF90AF909F9081
:101630008F907F906F905F904F900C940E09DF9188
:10164000CF911F910F91FF90EF90DF90CF90BF90BF
:10165000AF909F908F907F906F905F904F90089584
:10166000089580E090E008952F923F924F925F920C
:101670006F927F928F929F92AF92BF92CF92DF92A2
:10168000EF92FF920F931F93CF93DF93CDB7DEB707
:101690006C970FB6F894DEBF0FBECDBF9C8F8B8FBB
:1016A0005B011A011F830E833701C982DC01589642
:1016B0004D915C9159974115510509F0E5C0189677
:1016C0008D919C911997681779070CF0CAC11A96E9
:1016D0008D919C911B97281639060CF0C2C18C2C59
:1016E000912CFB0136E0C39EE00DF11D1124FB8718
:1016F000EA871E161F060CF0B4C1C40133E0880F40
:10170000991F3A95E1F79D878C87820D931D1816D6
:1017100019060CF0A6C157968C91811103C0203B8D
:1017200008F02F5FAB8DBC8DED91FC911197028479
:10173000F385E02DCD012A8F09952A8DB5E02B9FE9
:1017400090011124F5013596FF87EE87BB82AA82AE
:101750002501A9014A195B09598B488BC1010896DB
:101760009B8B8A8BE889F989E40DF51DEE5DFE4FB0
:101770009491988761013D822C82A885A0FF13C0B7
:10178000AB8DBC8DED91FC91B981B13031F4048405
:10179000F585E02D2E813F8116C00684F785E02D6A
:1017A000EE80FF801AC0EE81FF816E167F06F1F099
:1017B000AB8DBC8DED91FC91B981B13051F40484B5
:1017C000F585E02D9301A601B2018B8D9C8D0995C5
:1017D0000DC00684F785E02D7301840194014C81CE
:1017E0005D816A817B818B8D9C8D0995E885E6956D
:1017F000E887FFEFCF1ADF0A2C813D81280D391DC4
:101800003D832C834A895B89C416D50609F0B5CF80
:101810005FEF451A550A8A819B81880D991D9B832C
:101820008A83AE85BF854A165B0609F09BCFEE81A1
:10183000FF816E167F0609F4F2C0EB8DFC8DA0814E
:10184000B181F981F13079F4B5016B5F7F4F50962A
:10185000ED91FC915197830128E030E0A1018B8D3F
:101860009C8D0995DCC06A857B85681979091E966F
:10187000ED91FC911F9773010C851D859401A101C9
:101880008B8D9C8D0995CBC0FA013496949132973B
:1018900065917491291BCB01B7E02B9F800D911DA1
:1018A0001124FA01259134913B8B2A8BFC0145913F
:1018B00054915B834A83FC013296C49031965491D3
:1018C0005E87329614913196D4908981823058F097
:1018D000612E012E000C7708AD2D0D2C000CBB0BDA
:1018E000B987A88704C019861886612C712CAB8D26
:1018F000BC8DED91FC9111970284F385E02DCD0113
:101900000995B9818B2E912C689CC001699C900D22
:10191000789C900D1124FC01EA0DFB1DFD87EC87DE
:101920001C82712C612CE12F110FFF0B95012E0FE2
:101930003F1F3B872A87AC0CB11CA5014E0F5F1FD0
:101940005F8B4E8BC1018D0D911DD7FC9A95998FA0
:10195000888F4E85641608F062C0862D90E0488519
:101960005985480F591F489D9001499D300D589D3C
:10197000300D1124D901A20DB31DB98BA88BAA84F7
:10198000BB844C845D84DC80BA85DB1AE88DF98DDC
:10199000E80FF91FFD8BEC8B8D2D8A0D2E893F8969
:1019A000A216B306B9F1877061F48A819B81019612
:1019B000EA89FB89AA81BB81EA0FFB1F74909B8394
:1019C0008A8377FE20C0AB8DBC8DED91FC91B981EF
:1019D000B13061F40484F585E02D2E813F814C897E
:1019E0005D89B5018B8D9C8D09950DC00684F785A9
:1019F000E02DEE80FF808401940148895989B2016D
:101A00008B8D9C8D0995770CEFEFAE1ABE0A480CB2
:101A1000591CC2CF3C813C0D3C8363949ACFAB8D63
:101A2000BC8DED91FC9111970688F789E02DCD01D1
:101A30006C960FB6F894DEBF0FBECDBFDF91CF918D
:101A40001F910F91FF90EF90DF90CF90BF90AF90DC
:101A50009F908F907F906F905F904F903F902F90CE
:101A600009946C960FB6F894DEBF0FBECDBFDF9120
:101A7000CF911F910F91FF90EF90DF90CF90BF908B
:101A8000AF909F908F907F906F905F904F903F901E
:101A90002F900895CF92DF92EF92FF920F931F93B2
:101AA000CF93DF938C017B01EA01FC01C480D580D8
:101AB00060E070E08CE492E00E949B0980914A0211
:101AC00090914B02909359028093580282E090E0EB
:101AD00090935B0280935A02F801448155816081A2
:101AE00071818CE492E00E94480EF0925F02E092D5
:101AF0005E02F0925D02E0925C0280914A02909157
:101B00004B02019790934B0280934A024AEFB60131
:101B100046039001479F300D11248217930764F408
:101B2000809154029091550290934B0280934A0207
:101B300010928E0110928D0180916E0290916F0231
:101B4000892B11F00E94BA0EBE01DD0F880B990B94
:101B5000DF91CF911F910F91FF90EF90DF90CF9089
:101B60000C94E2059F92AF92BF92CF92DF92EF92D8
:101B7000FF920F931F93CF93DF937901687F5C7F70
:101B800028E0529F80011124F801F62B042F10E069
:101B900023E0159507952A95E1F70E2B1F2B5C0185
:101BA000912CCC24C394D12CA0E0B0E0109711F07C
:101BB000990C02C0F5019490ED01219697FE07C0A3
:101BC0009801A601BE018CE492E00E945C08DE014F
:101BD000289761F7FFEFCF1ADF0A2FEFA21AB20A98
:101BE00089E0C816D10401F780916E0290916F02CE
:101BF000892B11F00E94BA0EB701FF0C880B990BCC
:101C00000E94E20560E070E08CE492E0DF91CF9109
:101C10001F910F91FF90EF90DF90CF90BF90AF900A
:101C20009F900C949B09CF93DF9300D000D000D0FD
:101C3000CDB7DEB760E070E08CE492E00E949B09D3
:101C400010924B0210924A0240E050E066E771E0C9
:101C500082E492E00E94591066E771E0CE0101969D
:101C60000E94B31040E050E065EF75EFCE010196A1
:101C70000E944A0DCE0101960E94A51026960FB62D
:101C8000F894DEBF0FBECDBFDF91CF9108950895C8
:101C9000CF92DF92EF92FF920F931F93CF93DF9338
:101CA0006C017A018B01C0E0D0E0CE15DF0589F030
:101CB000D8016D918D01D601ED91FC910190F081DB
:101CC000E02DC6010995892B11F47E0102C02196F1
:101CD000ECCFC701DF91CF911F910F91FF90EF9053
:101CE000DF90CF90089590E0FC01EE5DF94F2491D4
:101CF000FC01EA5CF94F3491FC01EC5AF94FE49194
:101D0000EE23B9F1222339F1233091F038F4213058
:101D1000A9F0223001F584B58F7D12C0273091F0F3
:101D20002830A1F02430B9F4809180008F7D03C069
:101D3000809180008F77809380000DC084B58F776D
:101D400084BD09C08091B0008F7703C08091B0003E
:101D50008F7D8093B000F0E0EE0FFF1FE65BF94F40
:101D6000A591B4918FB7F894EC9130953E233C93B4
:101D70008FBF08950F931F93CF93DF93CDB7DEB737
:101D800029970FB6F894DEBF0FBECDBF0E94BD05E8
:101D900000917402109175022091760230917702C1
:101DA000DC01CB01801B910BA20BB30B8C32914059
:101DB000A105B10558F3F89480916A0290916B02E5
:101DC0009A838983E0916E02F0916F02DF01119690
:101DD0008081898790916602E0917802F091790282
:101DE00080917A02992309F42EC09081982B9887CC
:101DF0009081809589238F838F818C8388E08B836A
:101E000058856F8149853B812C8189819A815083D6
:101E100047FD252F3A952083262F39F0441F00C017
:101E200000006083000000C0F2CF38E04D91608375
:101E30000000019761F7F0937902E09378024987F7
:101E40003B832C8338C09081982B98879081809514
:101E500089238F838F818E8388E08D8358856F815E
:101E600049853D812E8189819A81508347FD252FA7
:101E700000C000C0208300C000C000C000C000C07F
:101E800060830000262F3A9541F0441F000000C0F7
:101E900000C000C000C000C0E8CF38E04D9100C0D5
:101EA000608300C0019709F7F0937902E09378020C
:101EB00049873D832E839A83898378940E94BD0548
:101EC0006093740270937502809376029093770208
:101ED00029960FB6F894DEBF0FBECDBFDF91CF912C
:101EE0001F910F9108952FB7F89480918F019091D1
:101EF0009001A0919101B09192012FBF80939B011D
:101F000090939C01A0939D01B0939E01E091930159
:101F1000F09194010284F385E02D83E991E0099525
:101F200097FF26C02FB7F89480918F019091900170
:101F3000A0919101B09192012FBF40919B015091CE
:101F40009C0160919D0170919E01841B950BA60BD5
:101F5000B70B409197015091980160919901709150
:101F60009A0184179507A607B70780F28FEF9FEFB6
:101F70000895FC0180819181009711F00C946C15FB
:101F800060E070E0CB010895CF93DF93DC011496FD
:101F9000ED91FC9115976E177F0728F541155105B6
:101FA00011F19F01261B370B4217530708F49A01C2
:101FB000DB01EC0188819981E21BF30BFD83EC834B
:101FC000AF01461B570B260F371FBC01620F731F53
:101FD0008A0F9B1F0E942218E881F9818C819D81C4
:101FE000E80FF91F1082DF91CF910895CF93DF930F
:101FF000FC01248135814217530780F4FB01DC0189
:10200000CD91DC9160817181CE01840F951F0E947A
:102010003118009719F08C1B9D0B02C08FEF9FEFBA
:10202000DF91CF910895FC0124813581232B31F478
:1020300021E061157105A1F0FB0108C0FC01808160
:1020400091816115710531F421E0FC0180818823C3
:1020500039F005C00E94121821E0892B09F020E018
:10206000822F08950F931F93CF93DF93EC01888104
:102070009981009729F02A813B812617370788F438
:102080008B016F5F7F4F0E943A17009761F0998331
:1020900088831B830A832C813D81232B11F4FC014F
:1020A000108281E001C080E0DF91CF911F910F91FC
:1020B0000895EF92FF920F931F93CF93DF93EC015C
:1020C0007B018A01BA010E94321028813981811175
:1020D0000DC02115310519F0C9010E94A2161982FF
:1020E00018821D821C821B821A8206C01D830C83EB
:1020F000B701C9010E941B18CE01DF91CF911F913A
:102100000F91FF90EF900895CF93DF93EC01FB01C7
:1021100086179707B1F0608171816115710529F00B
:10212000448155810E9459100CC088819981009783
:1021300011F00E94A216198218821D821C821B8235
:102140001A82CE01DF91CF910895FC0180819181A7
:102150000C94A216FC011182108213821282158245
:1021600014820C948410FC0111821082138212825A
:10217000158214826115710551F0FB010190002058
:10218000E9F73197AF01461B570B0C94591008958E
:10219000CF93DF93CDB7DEB7A4970FB6F894DEBF29
:1021A0000FBECDBF789484B5826084BD84B5816054
:1021B00084BD85B5826085BD85B5816085BD809112
:1021C0006E00816080936E0010928100809181008A
:1021D0008260809381008091810081608093810082
:1021E000809180008160809380008091B100846044
:1021F0008093B1008091B00081608093B0008091A5
:102200007A00846080937A0080917A008260809363
:102210007A0080917A00816080937A0080917A00C0
:10222000806880937A001092C10061E08CE00E9487
:10223000810580916C0287FD07C061E00E948105E5
:1022400080916C020E94730E81E08093670210926D
:10225000620260916D02633321F120916E02309130
:102260006F02615031F070E08FEF92E30E94DF1552
:1022700002C060E070E0F90140916A0250916B0287
:10228000CF01821B930B8417950740F44081469F32
:10229000C001479F900D11249193EECF83E380936B
:1022A0006D02E091A301F091A40182E08083E091AE
:1022B0009F01F091A0011082E091A101F091A20193
:1022C0008FEC80831092AB01E091A701F091A801FF
:1022D00086E08083E091A501F091A6018081806174
:1022E0008083E091A501F091A601808188608083C0
:1022F000E091A501F091A601808180688083E09142
:10230000A501F091A60180818F7D80838AE090E015
:10231000A0E0B0E08093970190939801A093990179
:10232000B0939A0193E0E92EF12C66E771E082E424
:1023300092E00E941310811119C0C0900001D0904A
:102340000101009148021091490262E472E0CE015D
:1023500001960E94AA10A601B801CE0101960E9422
:102360004A0DCE0101960E94A5109DC080918B015F
:1023700090918C01009709F484C08230910509F195
:102380008330910509F441C0019709F075C003E05D
:1023900010E02CEB32E04FEF5FEB60E070E08AE79B
:1023A00090E00E94B20D2CEB32E04FEF50E060E085
:1023B00070E082E790E00E94B20D0150110949F7E8
:1023C0005BC003E010E028EE33E043E155E46BE846
:1023D00070E082E990E00E94B20D28EE33E043E124
:1023E00055E46BE870E08AE890E00E94B20D28EEB8
:1023F00033E043E155E46BE870E082E890E00E944E
:10240000B20D01501109F9F637C00AE010E02CE2D4
:1024100031E04BEC50EC6FEF70E08AEB90E00E9403
:10242000B20D2CE231E04BEC50EC6FEF70E082EB40
:1024300090E00E94B20D2CE231E04BEC50EC6FEFDB
:1024400070E08AEA90E00E94B20D2CE231E04BECA1
:1024500050EC6FEF70E082EA90E00E94B20D2CE247
:1024600031E04BEC50EC6FEF70E08AE990E00E94B5
:10247000B20D0150110959F610928C0110928B0186
:1024800012C041E050E062E771E083E991E00E9410
:10249000480E42E050E064E771E083E991E00E9479
:1024A000480E0E94130E66E771E0CE0101960E946D
:1024B000B3100E94730F97FD1BC08F8318860D8188
:1024C0001E810F5F1F4FB801CE0101960E9432108E
:1024D000882379F329813A818D819E81BE01695FCC
:1024E0007F4F820F931F0E941B181E830D83E1CF25
:1024F00080913C0290913D020097C9F069817A81F8
:102500006115710591F040913E0250913F022D817D
:102510003E814217530748F00E941B188D819E810F
:10252000909341028093400218C00E94A2168981B4
:102530009A8190933D0280933C028B819C81909381
:102540003F0280933E028D819E8190934102809351
:1025500040021A8219821C821B821E821D82CE01B9
:1025600001960E94A51066E771E08CE392E00E945C
:10257000131081116FC16CE372E086E392E00E9458
:10258000841067E771E0CE0101960E94B31040E02D
:1025900050E0BE016F5F7F4F8CE392E00E94F60F28
:1025A0004FEF5FEFBC0186E392E00E94C40FCE01C3
:1025B00001960E94A5106CE372E080E392E00E9415
:1025C000841042E050E060E070E080E392E00E941E
:1025D000C40F69E771E086E392E00E94131088233C
:1025E00009F4FBC060E372E0CE014F960E94AA108E
:1025F00060E372E0CE0149960E94AA1067E771E09D
:10260000CE0101960E94B31041E050E0BE016F5F21
:102610007F4F80E392E00E94F60FAC01455F5F4F71
:1026200060E070E0CE014F960E94C40FCE0101968B
:102630000E94A51067E771E0CE0101960E94B310D9
:1026400041E050E0BE016F5F7F4F80E392E00E9467
:10265000F60FAC014F5F5F4F60E070E0CE0149962E
:102660000E94C40FCE0101960E94A5104DE050E0DB
:1026700069E070E0CE0149960E94C40F67E771E0FF
:10268000CE0101960E94B31040E050E0BE016F5FA2
:102690007F4F80E392E00E94F60F4FEF5FEFBC01A7
:1026A00080E392E00E94C40FCE0101960E94A51023
:1026B0004D8D5E8D698D7A8D83E991E00E94480E83
:1026C00042E050E064E771E083E991E00E94480E47
:1026D000BE01675E7F4FCE0143960E94AA10BE01E5
:1026E0006D5E7F4FCE010D960E94AA10BE016D5EF9
:1026F0007F4FCE0107960E94AA10BE016D5E7F4FEC
:10270000CE0101960E94AA1048E050E063E070E01C
:10271000CE010D960E94C40F43E050E060E070E0EF
:10272000CE0107960E94C40F46E050E063E070E0DF
:10273000CE0107960E94C40F46E050E060E070E0D2
:10274000CE0101960E94C40FCE010D960E94B90FD2
:10275000D62ECE0107960E94B90F062FCE01019604
:102760000E94B90F0C7F88E0089F800111249D2DE5
:10277000987F192B70E083E0759567958A95E1F74E
:10278000062B172BCE0101960E94A510CE010796AD
:102790000E94A510CE010D960E94A510109349022B
:1027A00000934802CE0143960E94A510CE014F9699
:1027B0000E94B90F709301016093000160E372E021
:1027C00082E492E00E948410CE0149960E94A510F6
:1027D000CE014F960E94A5103DC06BE771E086E3E5
:1027E00092E00E941310882329F010928C0110921D
:1027F0008B0130C06DE771E086E392E00E94131018
:10280000882319F081E090E00AC06FE771E086E369
:1028100092E00E941310882339F082E090E09093B8
:102820008C0180938B0116C061E871E086E392E031
:102830000E941310882329F0F0928C01E0928B0102
:1028400009C063E871E086E392E00E9413108111F1
:102850000E94130E0E94310468CD80E392E00E9432
:10286000A51086E392E00E94A5108CE392E00E94FE
:10287000A51082E492E00E94A5108AE491E0909372
:102880004D0280934C0280916E0290916F020097EE
:1028900011F00E94A21680916C0287FD03C060E0D7
:1028A0000C9481050895CF93DF93109296011092B6
:1028B000950188EE93E0A0E0B0E0809397019093BB
:1028C0009801A0939901B0939A018CE091E09093C4
:1028D00094018093930185EC90E09093A001809304
:1028E0009F0184EC90E09093A2018093A10180EC81
:1028F00090E09093A4018093A30181EC90E09093E9
:10290000A6018093A50182EC90E09093A8018093AA
:10291000A70186EC90E09093AA018093A901109200
:10292000AC011092AD011092AE011092AF01109265
:102930004F0210924E028EE191E090934D028093EF
:102940004C028BE090E09093510280935002909360
:1029500053028093520290935502809354029093B5
:1029600057028093560210926102109259021092FF
:10297000580210925B0210925A0281E0809360022A
:102980002FEF3FEF30935F0220935E0230935D02A2
:1029900020935C028093620210926302109265029F
:1029A000109264021092670210926D0210927402EB
:1029B0001092750210927602109277028093730241
:1029C000809370021092710292E090937202809351
:1029D0006602CBE6D1E0D0936B02C0936A028BE62D
:1029E00091E00E940D1690936F0280936E02009703
:1029F00069F0FC019E01119221503040E1F789E716
:102A000090E0909369028093680208C010926B0274
:102A100010926A0210926902109268028AE0809312
:102A20006C0280916702882339F061E08AE00E949D
:102A300081058AE00E94730EEEE5F6E0E491F0E095
:102A4000EE0FFF1FE65BF94F859194919093790209
:102A500080937802E0E4F6E0E491E0937A028AE47D
:102A600091E090934D0280934C028BE080937B0227
:102A700080937C0280937D0210927E0210927F02EE
:102A8000109281021092800210928602809154026C
:102A90009091550290934B0280934A021092490202
:102AA0001092480266E771E082E492E00E94B3105F
:102AB00066E771E08CE392E00E94B31066E771E094
:102AC00086E392E00E94B31066E771E080E392E053
:102AD000DF91CF910C94B3101F93FC0199278827A5
:102AE000BC01E89411911032E9F3193010F01E3056
:102AF000C8F31B3251F01D3249F4689406C00E949D
:102B00009315610F711D811D911D119110531A3084
:102B1000B0F33EF490958095709561957F4F8F4FFF
:102B20009F4F1F910895592F482F372F262F660F3B
:102B3000771F881F991F660F771F881F991F620FC5
:102B4000731F841F951F660F771F881F991F089595
:102B50002F923F924F925F926F927F928F929F92AD
:102B6000AF92BF92CF92DF92EF92FF920F931F939B
:102B7000CF93DF93CDB7DEB7CA1BDB0B0FB6F8944C
:102B8000DEBF0FBECDBF09942A88398848885F848C
:102B90006E847D848C849B84AA84B984C884DF80FD
:102BA000EE80FD800C811B81AA81B981CE0FD11DE1
:102BB0000FB6F894DEBF0FBECDBFED010895AA1B7E
:102BC000BB1B51E107C0AA1FBB1FA617B70710F018
:102BD000A61BB70B881F991F5A95A9F7809590954A
:102BE000BC01CD01089597FB072E16F4009407D081
:102BF00077FD09D00E94DF1507FC05D03EF49095C3
:102C000081959F4F0895709561957F4F0895EE0FC0
:102C1000FF1F0590F491E02D0994CF93DF9382304C
:102C2000910510F482E090E0E0918902F0918A022F
:102C300020E030E0C0E0D0E0309711F140815181D8
:102C400048175907C0F04817590761F482819381EA
:102C5000209719F09B838A832BC090938A028093DC
:102C6000890226C02115310519F04217530718F4BF
:102C70009A01BE01DF01EF010280F381E02DDCCF7C
:102C80002115310509F1281B390B2430310590F449
:102C900012968D919C9113976115710521F0FB019E
:102CA0009383828304C090938A0280938902FD01FA
:102CB000329644C0FD01E20FF31F8193919322509D
:102CC00031092D933C933AC02091870230918802BC
:102CD000232B41F4209104013091050130938802A7
:102CE00020938702209102013091030121153105C3
:102CF00041F42DB73EB74091060150910701241BC6
:102D0000350BE0918702F0918802E217F307A0F4F7
:102D10002E1B3F0B2817390778F0AC014E5F5F4F31
:102D20002417350748F04E0F5F1F509388024093D9
:102D300087028193919302C0E0E0F0E0CF01DF9140
:102D4000CF9108950F931F93CF93DF93009709F4CA
:102D50008CC0FC013297138212820091890210917B
:102D60008A020115110581F420813181820F931FA0
:102D700020918702309188022817390779F5F0935E
:102D80008802E093870271C0D80140E050E0AE179E
:102D9000BF0750F412962D913C911397AD01211568
:102DA000310509F1D901F3CF9D01DA013383228383
:102DB00060817181860F971F8217930769F4EC0178
:102DC00028813981260F371F2E5F3F4F31832083A3
:102DD0008A819B8193838283452B29F4F0938A0215
:102DE000E093890242C01396FC93EE931297ED0193
:102DF000499159919E01240F351FE217F30771F491
:102E000080819181840F951F029611969C938E93D9
:102E10008281938113969C938E931297E0E0F0E069
:102E2000D80112968D919C911397009719F0F80193
:102E30008C01F6CF8D919C9198012E5F3F4F820FB0
:102E4000931F20918702309188022817390769F46F
:102E5000309729F410928A021092890202C01382DC
:102E600012821093880200938702DF91CF911F9105
:102E70000F910895A0E0B0E0E0E4F7E10C94AC1508
:102E8000EC01009721F4CB010E940D16B8C0FC01A3
:102E9000E60FF71F9C0122503109E217F30708F4EF
:102EA000ACC0D9010D911C91119706171707B0F00E
:102EB0000530110508F49FC0C801049786179707CD
:102EC00008F499C002501109061B170B01931193C6
:102ED0006D937C93CF010E94A2168DC05B01A01A56
:102EE000B10A4C01800E911EA0918902B0918A0214
:102EF00040E050E0E12CF12C109709F44AC0A815ED
:102F0000B905D1F56D907C901197630182E0C80EF0
:102F1000D11CCA14DB0480F1A3014A195B096A01C0
:102F200082E0C80ED11C1296BC9012971396AC91F9
:102F3000B5E0CB16D10440F0B282A3835183408325
:102F4000D9016D937C930AC00E5F1F4FC301800FA0
:102F5000911FF90191838083EB2DFA2FE114F10485
:102F600031F0D7011396FC93EE93129744C0F0937F
:102F70008A02E09389023FC08D919C911197481776
:102F8000590708F4AC017D0112960D90BC91A02D5B
:102F9000B3CF809187029091880288159905E1F45A
:102FA00046175707C8F480910201909103010097DA
:102FB00041F48DB79EB74091060150910701841BE3
:102FC000950BE817F907C8F4F0938802E09387029D
:102FD000F901718360830FC0CB010E940D167C0143
:102FE000009759F0A801BE010E940918CE010E9465
:102FF000A216C70104C0CE0102C080E090E0CDB7A8
:10300000DEB7EEE00C94C81581E090E0F8940C94E3
:103010004B18FB01DC0102C001900D924150504061
:10302000D8F70895FB01DC018D9101908019011002
:10303000D9F3990B0895FB01DC0101900D9200205A
:10304000E1F70895FB01DC014150504048F0019048
:103050000D920020C9F701C01D9241505040E0F789
:103060000895FB0151915523A9F0BF01DC014D9159
:1030700045174111E1F759F4CD010190002049F0C5
:103080004D9140154111C9F3FB014111EFCF81E092
:1030900090E00197089513E0C5E3D3E004C0FE017A
:1030A0000E9407162196C633D107C9F7F894FFCFBF
:1030B000640000008B02800000000000C803480E7E
:1030C00060030F0491036F038303000000005304A7
:1030D000480E310B300B510463085C08340850086B
:1030E0004408640833083C043B04EE07AA075A0767
:1030F0003C07C5066606000000005304480E310B6D
:10310000300BDD0963085C08340850084408640883
:1031100033083C043B04EE07AA075A079B09C5067F
:1031200066064C000D0A002F004100420043004497
:063130000046004500000E
:00000001FF
